{
  "contractName": "VendingMachine",
  "abi": [
    {
      "inputs": [],
      "stateMutability": "nonpayable",
      "type": "constructor"
    },
    {
      "inputs": [
        {
          "internalType": "address",
          "name": "",
          "type": "address"
        }
      ],
      "name": "cupcakeBalances",
      "outputs": [
        {
          "internalType": "uint256",
          "name": "",
          "type": "uint256"
        }
      ],
      "stateMutability": "view",
      "type": "function",
      "constant": true
    },
    {
      "inputs": [],
      "name": "owner",
      "outputs": [
        {
          "internalType": "address",
          "name": "",
          "type": "address"
        }
      ],
      "stateMutability": "view",
      "type": "function",
      "constant": true
    },
    {
      "inputs": [
        {
          "internalType": "uint256",
          "name": "amount",
          "type": "uint256"
        }
      ],
      "name": "refill",
      "outputs": [],
      "stateMutability": "nonpayable",
      "type": "function"
    },
    {
      "inputs": [
        {
          "internalType": "uint256",
          "name": "amount",
          "type": "uint256"
        }
      ],
      "name": "purchase",
      "outputs": [],
      "stateMutability": "payable",
      "type": "function",
      "payable": true
    }
  ],
  "bytecode": "0x608060405234801561001057600080fd5b50336000806101000a81548173ffffffffffffffffffffffffffffffffffffffff021916908373ffffffffffffffffffffffffffffffffffffffff1602179055506064600160003073ffffffffffffffffffffffffffffffffffffffff1673ffffffffffffffffffffffffffffffffffffffff168152602001908152602001600020819055506107cc806100a56000396000f3fe60806040526004361061003f5760003560e01c80638da5cb5b14610044578063ca9d07ba1461006f578063e18a7b9214610098578063efef39a1146100d5575b600080fd5b34801561005057600080fd5b506100596100f1565b60405161006691906103dc565b60405180910390f35b34801561007b57600080fd5b5061009660048036038101906100919190610432565b610115565b005b3480156100a457600080fd5b506100bf60048036038101906100ba919061048b565b6101fc565b6040516100cc91906104c7565b60405180910390f35b6100ef60048036038101906100ea9190610432565b610214565b005b60008054906101000a900473ffffffffffffffffffffffffffffffffffffffff1681565b60008054906101000a900473ffffffffffffffffffffffffffffffffffffffff1673ffffffffffffffffffffffffffffffffffffffff163373ffffffffffffffffffffffffffffffffffffffff16146101a3576040517f08c379a000000000000000000000000000000000000000000000000000000000815260040161019a9061053f565b60405180910390fd5b80600160003073ffffffffffffffffffffffffffffffffffffffff1673ffffffffffffffffffffffffffffffffffffffff16815260200190815260200160002060008282546101f2919061058e565b9250508190555050565b60016020528060005260406000206000915090505481565b670de0b6b3a76400008161022891906105e4565b34101561026a576040517f08c379a0000000000000000000000000000000000000000000000000000000008152600401610261906106b0565b60405180910390fd5b80600160003073ffffffffffffffffffffffffffffffffffffffff1673ffffffffffffffffffffffffffffffffffffffff1681526020019081526020016000205410156102ec576040517f08c379a00000000000000000000000000000000000000000000000000000000081526004016102e390610742565b60405180910390fd5b80600160003073ffffffffffffffffffffffffffffffffffffffff1673ffffffffffffffffffffffffffffffffffffffff168152602001908152602001600020600082825461033b9190610762565b9250508190555080600160003373ffffffffffffffffffffffffffffffffffffffff1673ffffffffffffffffffffffffffffffffffffffff1681526020019081526020016000206000828254610391919061058e565b9250508190555050565b600073ffffffffffffffffffffffffffffffffffffffff82169050919050565b60006103c68261039b565b9050919050565b6103d6816103bb565b82525050565b60006020820190506103f160008301846103cd565b92915050565b600080fd5b6000819050919050565b61040f816103fc565b811461041a57600080fd5b50565b60008135905061042c81610406565b92915050565b600060208284031215610448576104476103f7565b5b60006104568482850161041d565b91505092915050565b610468816103bb565b811461047357600080fd5b50565b6000813590506104858161045f565b92915050565b6000602082840312156104a1576104a06103f7565b5b60006104af84828501610476565b91505092915050565b6104c1816103fc565b82525050565b60006020820190506104dc60008301846104b8565b92915050565b600082825260208201905092915050565b7f4f6e6c7920746865206f776e65722063616e20726566696c6c2e000000000000600082015250565b6000610529601a836104e2565b9150610534826104f3565b602082019050919050565b600060208201905081810360008301526105588161051c565b9050919050565b7f4e487b7100000000000000000000000000000000000000000000000000000000600052601160045260246000fd5b6000610599826103fc565b91506105a4836103fc565b9250827fffffffffffffffffffffffffffffffffffffffffffffffffffffffffffffffff038211156105d9576105d861055f565b5b828201905092915050565b60006105ef826103fc565b91506105fa836103fc565b9250817fffffffffffffffffffffffffffffffffffffffffffffffffffffffffffffffff04831182151516156106335761063261055f565b5b828202905092915050565b7f596f75206d75737420706179206174206c65617374203120455448207065722060008201527f63757063616b6500000000000000000000000000000000000000000000000000602082015250565b600061069a6027836104e2565b91506106a58261063e565b604082019050919050565b600060208201905081810360008301526106c98161068d565b9050919050565b7f4e6f7420656e6f7567682063757063616b657320696e2073746f636b20746f2060008201527f636f6d706c657465207468697320707572636861736500000000000000000000602082015250565b600061072c6036836104e2565b9150610737826106d0565b604082019050919050565b6000602082019050818103600083015261075b8161071f565b9050919050565b600061076d826103fc565b9150610778836103fc565b92508282101561078b5761078a61055f565b5b82820390509291505056fea26469706673582212206998013bb1ecf501ad3f9299e58d68347035d5c8622398dbec9282d0b6613fe364736f6c634300080d0033",
  "immutableReferences": {},
  "source": "pragma solidity 0.8.13;\n\ncontract VendingMachine {\n\n    // Declare state variables of the contract\n    address public owner;\n    mapping (address => uint) public cupcakeBalances;\n\n    // When 'VendingMachine' contract is deployed:\n    // 1. set the deploying address as the owner of the contract\n    // 2. set the deployed smart contract's cupcake balance to 100\n    constructor() {\n        owner = msg.sender;\n        cupcakeBalances[address(this)] = 100;\n    }\n\n    // Allow the owner to increase the smart contract's cupcake balance\n    function refill(uint amount) public {\n        require(msg.sender == owner, \"Only the owner can refill.\");\n        cupcakeBalances[address(this)] += amount;\n    }\n\n    // Allow anyone to purchase cupcakes\n    function purchase(uint amount) public payable {\n        require(msg.value >= amount * 1 ether, \"You must pay at least 1 ETH per cupcake\");\n        require(cupcakeBalances[address(this)] >= amount, \"Not enough cupcakes in stock to complete this purchase\");\n        cupcakeBalances[address(this)] -= amount;\n        cupcakeBalances[msg.sender] += amount;\n    }\n}\n",
  "sourcePath": "/Users/hyunkicho/git/blockchain101/basics/tutorial_truffle/MetaCoin/contracts/VendingMachine.sol",
  "compiler": {
    "name": "solc",
    "version": "0.8.13+commit.abaa5c0e.Emscripten.clang"
  },
  "schemaVersion": "3.4.11",
  "updatedAt": "2022-12-18T18:13:28.884Z",
  "networkType": "ethereum",
  "devdoc": {
    "kind": "dev",
    "methods": {},
    "version": 1
  },
  "userdoc": {
    "kind": "user",
    "methods": {},
    "version": 1
  }
}