{
  "contractName": "VendingMachine",
  "abi": [
    {
      "inputs": [],
      "stateMutability": "nonpayable",
      "type": "constructor"
    },
    {
      "anonymous": false,
      "inputs": [
        {
          "indexed": true,
          "internalType": "address",
          "name": "purchaser",
          "type": "address"
        },
        {
          "indexed": false,
          "internalType": "uint256",
          "name": "amount",
          "type": "uint256"
        }
      ],
      "name": "Purchase",
      "type": "event"
    },
    {
      "inputs": [
        {
          "internalType": "address",
          "name": "",
          "type": "address"
        }
      ],
      "name": "cupcakeBalances",
      "outputs": [
        {
          "internalType": "uint256",
          "name": "",
          "type": "uint256"
        }
      ],
      "stateMutability": "view",
      "type": "function",
      "constant": true
    },
    {
      "inputs": [],
      "name": "owner",
      "outputs": [
        {
          "internalType": "address",
          "name": "",
          "type": "address"
        }
      ],
      "stateMutability": "view",
      "type": "function",
      "constant": true
    },
    {
      "inputs": [
        {
          "internalType": "uint256",
          "name": "amount",
          "type": "uint256"
        }
      ],
      "name": "refill",
      "outputs": [],
      "stateMutability": "nonpayable",
      "type": "function"
    },
    {
      "inputs": [
        {
          "internalType": "uint256",
          "name": "amount",
          "type": "uint256"
        }
      ],
      "name": "purchase",
      "outputs": [],
      "stateMutability": "payable",
      "type": "function",
      "payable": true
    }
  ],
  "bytecode": "0x608060405234801561001057600080fd5b50336000806101000a81548173ffffffffffffffffffffffffffffffffffffffff021916908373ffffffffffffffffffffffffffffffffffffffff1602179055506064600160003073ffffffffffffffffffffffffffffffffffffffff1673ffffffffffffffffffffffffffffffffffffffff1681526020019081526020016000208190555061081a806100a56000396000f3fe60806040526004361061003f5760003560e01c80638da5cb5b14610044578063ca9d07ba1461006f578063e18a7b9214610098578063efef39a1146100d5575b600080fd5b34801561005057600080fd5b506100596100f1565b604051610066919061042a565b60405180910390f35b34801561007b57600080fd5b5061009660048036038101906100919190610480565b610115565b005b3480156100a457600080fd5b506100bf60048036038101906100ba91906104d9565b6101fc565b6040516100cc9190610515565b60405180910390f35b6100ef60048036038101906100ea9190610480565b610214565b005b60008054906101000a900473ffffffffffffffffffffffffffffffffffffffff1681565b60008054906101000a900473ffffffffffffffffffffffffffffffffffffffff1673ffffffffffffffffffffffffffffffffffffffff163373ffffffffffffffffffffffffffffffffffffffff16146101a3576040517f08c379a000000000000000000000000000000000000000000000000000000000815260040161019a9061058d565b60405180910390fd5b80600160003073ffffffffffffffffffffffffffffffffffffffff1673ffffffffffffffffffffffffffffffffffffffff16815260200190815260200160002060008282546101f291906105dc565b9250508190555050565b60016020528060005260406000206000915090505481565b670de0b6b3a7640000816102289190610632565b34101561026a576040517f08c379a0000000000000000000000000000000000000000000000000000000008152600401610261906106fe565b60405180910390fd5b80600160003073ffffffffffffffffffffffffffffffffffffffff1673ffffffffffffffffffffffffffffffffffffffff1681526020019081526020016000205410156102ec576040517f08c379a00000000000000000000000000000000000000000000000000000000081526004016102e390610790565b60405180910390fd5b80600160003073ffffffffffffffffffffffffffffffffffffffff1673ffffffffffffffffffffffffffffffffffffffff168152602001908152602001600020600082825461033b91906107b0565b9250508190555080600160003373ffffffffffffffffffffffffffffffffffffffff1673ffffffffffffffffffffffffffffffffffffffff168152602001908152602001600020600082825461039191906105dc565b925050819055503373ffffffffffffffffffffffffffffffffffffffff167f2499a5330ab0979cc612135e7883ebc3cd5c9f7a8508f042540c34723348f632826040516103de9190610515565b60405180910390a250565b600073ffffffffffffffffffffffffffffffffffffffff82169050919050565b6000610414826103e9565b9050919050565b61042481610409565b82525050565b600060208201905061043f600083018461041b565b92915050565b600080fd5b6000819050919050565b61045d8161044a565b811461046857600080fd5b50565b60008135905061047a81610454565b92915050565b60006020828403121561049657610495610445565b5b60006104a48482850161046b565b91505092915050565b6104b681610409565b81146104c157600080fd5b50565b6000813590506104d3816104ad565b92915050565b6000602082840312156104ef576104ee610445565b5b60006104fd848285016104c4565b91505092915050565b61050f8161044a565b82525050565b600060208201905061052a6000830184610506565b92915050565b600082825260208201905092915050565b7f4f6e6c7920746865206f776e65722063616e20726566696c6c2e000000000000600082015250565b6000610577601a83610530565b915061058282610541565b602082019050919050565b600060208201905081810360008301526105a68161056a565b9050919050565b7f4e487b7100000000000000000000000000000000000000000000000000000000600052601160045260246000fd5b60006105e78261044a565b91506105f28361044a565b9250827fffffffffffffffffffffffffffffffffffffffffffffffffffffffffffffffff03821115610627576106266105ad565b5b828201905092915050565b600061063d8261044a565b91506106488361044a565b9250817fffffffffffffffffffffffffffffffffffffffffffffffffffffffffffffffff0483118215151615610681576106806105ad565b5b828202905092915050565b7f596f75206d75737420706179206174206c65617374203120455448207065722060008201527f63757063616b6500000000000000000000000000000000000000000000000000602082015250565b60006106e8602783610530565b91506106f38261068c565b604082019050919050565b60006020820190508181036000830152610717816106db565b9050919050565b7f4e6f7420656e6f7567682063757063616b657320696e2073746f636b20746f2060008201527f636f6d706c657465207468697320707572636861736500000000000000000000602082015250565b600061077a603683610530565b91506107858261071e565b604082019050919050565b600060208201905081810360008301526107a98161076d565b9050919050565b60006107bb8261044a565b91506107c68361044a565b9250828210156107d9576107d86105ad565b5b82820390509291505056fea26469706673582212202bb207dfc16e8378f2a4ad2c940bf6d3046650adea4417b647852b1e968eb25164736f6c634300080d0033",
  "immutableReferences": {},
  "source": "pragma solidity 0.8.13;\n\ncontract VendingMachine {\n    event Purchase (address indexed purchaser, uint256 amount);\n\n    // Declare state variables of the contract\n    address public owner;\n    mapping (address => uint) public cupcakeBalances;\n\n    // When 'VendingMachine' contract is deployed:\n    // 1. set the deploying address as the owner of the contract\n    // 2. set the deployed smart contract's cupcake balance to 100\n    constructor() {\n        owner = msg.sender;\n        cupcakeBalances[address(this)] = 100;\n    }\n\n    // Allow the owner to increase the smart contract's cupcake balance\n    function refill(uint amount) public {\n        require(msg.sender == owner, \"Only the owner can refill.\");\n        cupcakeBalances[address(this)] += amount;\n    }\n\n    // Allow anyone to purchase cupcakes\n    function purchase(uint amount) public payable {\n        require(msg.value >= amount * 1 ether, \"You must pay at least 1 ETH per cupcake\");\n        require(cupcakeBalances[address(this)] >= amount, \"Not enough cupcakes in stock to complete this purchase\");\n        cupcakeBalances[address(this)] -= amount;\n        cupcakeBalances[msg.sender] += amount;\n        emit Purchase(msg.sender, amount);\n    }\n}\n",
  "sourcePath": "/Users/hyunkicho/git/blockchain101/basics/tutorial_truffle/contracts/VendingMachine.sol",
  "compiler": {
    "name": "solc",
    "version": "0.8.13+commit.abaa5c0e.Emscripten.clang"
  },
  "schemaVersion": "3.4.11",
  "updatedAt": "2023-01-01T18:16:34.696Z",
  "networkType": "ethereum",
  "devdoc": {
    "kind": "dev",
    "methods": {},
    "version": 1
  },
  "userdoc": {
    "kind": "user",
    "methods": {},
    "version": 1
  }
}